:020000020000FC
:100000007FC0189543C0189541C018953FC01895FA
:100010003DC018953BC0189539C0189537C0189544
:1000200035C0189533C0189531C018952FC0189554
:100030002DC018952BC01895A5C0189527C01895E8
:100040009FC0189523C018954DC118951FC01895CD
:100050001DC018951BC0189519C0189517C0189584
:1000600015C0189513C0189511C018950FC0189594
:100070000DC018950BC0189509C0189507C01895A4
:1000800005C0189503C0189501C0189518952E0045
:100090003D3D3D3D3D3D3D3D3D3D3D3D3D3D3D00CD
:1000A000204D5233303234202020202020202000C8
:1000B00020202020206D696E69524F424F5420004D
:1000C000206279204B4A53204A53422020202000AE
:1000D0002076657220322E3530202020202020000E
:1000E00020323030352E31302E2032372020200083
:1000F0003D3D3D3D3D3D3D3D3D3D3D3D3D3D3D006D
:100100000FEF0DBF00E10EBF0E94D4007CD08DD058
:10011000F5D038D2D8D1C5D0A1D000919B0007FF2F
:1001200000C03BD27894B093FF0CA093FE0CA8952E
:100130000091D20403FF06C0077F0093D20489D543
:100140000AEA9FD500919B0007FD6FD20091D2046F
:1001500003FD0AC004FDE7CF0091D20406FDE3CF02
:1001600000919B0007FDDFCF0091120507FFDBCF59
:100170001DD7F0E6E02F0994D6CF0EE001BD08951B
:100180000C9490510C949655000102030405060747
:100190000010203040506070F7DF0FD00EEF1FEFDF
:1001A0001E170F0748F00ED0D1E0C8E8F0EEE2E0ED
:1001B0000BD040F4D1E0C8E9F1EEE0E005D010F456
:1001C000089408958894089530E1FF93EF93FD2FEC
:1001D000EC2F00E00BBF0490102C2196EF91FF91C3
:1001E00001E00BBF0790011008C03A9571F700912C
:1001F00012050068009312050895009112050F770B
:10020000009312050895F0E0E0E0DD27CC270027F9
:100210000591C00F08F4D395FF23D1F7EE23C1F762
:10022000D093F204C093F304089540E058E0B0E0A6
:10023000A0E0142F0E94B30808F404C043955A9517
:10024000B1F7089500E400932D054093C20408958A
:10025000BF5F2F1F170F0B07050300000BE009B945
:1002600000E0009390000AB108610AB902B10E7F64
:10027000026002B900000CB10895A8955D9BFDCF06
:100280000CB908950E947C0B0E94830BA8955F997E
:1002900005C006B702FFFACF889408950CB1089400
:1002A00008950FE20093990000E0009398000091F8
:1002B0009A00086100939A0001B30B7F086001BBAC
:1002C000000000919C00089510919B0015FFFCCF49
:1002D00000939C00089500919B0007FFFCCF0091C4
:1002E0009C0008950F930FB70F93000000000000CB
:1002F000000000000F910FBF0F91189537D1A8D0C3
:10030000BAD0CCD09AD024D104E806B905E003BF16
:1003100001E007BF06D091D625D103E00E94F52564
:1003200008957FD014D089D004D000E000938B00D2
:100330000895DDE0C0E02296D093D604C093D504A2
:10034000B0E0A0E1B093FF0CA093FE0C08959927B4
:1003500000270093D3040093D70400270093EB04F5
:100360000093EC040093ED040093EE040093CA04A0
:100370000093CB040093CC040093CD04002700939A
:10038000DE040093DC040093DD0400270093D00416
:1003900000E00093F40400E00093F00400E0009318
:1003A000EF04BFE0A4EB22D60093D1040027009312
:1003B000D80400E00093D20400E000930A0504E6AC
:1003C0000093050500E00093C30400E000931105CD
:1003D0000093130500E000932F050CE214E0D5E034
:1003E000C0E309931A95E9F70CE210E2D5E0C4E7FF
:1003F00009931A95E9F700E010E2D5E0C4E3099308
:100400001A95E9F701E010E2D5E0C4E509931A95E1
:10041000E9F701E010E2D5E0C4E909931A95E9F79C
:100420000895B1E0A0E00AE01FEF0D931A95E9F7F7
:1004300011E20D931A95E9F70895D3E0C0EC20E29C
:1004400002E309932A95E1F702E00093D4040895AA
:10045000AF93BF93BFE0A0EED3E0C0E420E2E5D5C8
:10046000053118F00B3E08F400E009932A95B9F71E
:10047000BF91AF910895BFE0A0ECD3E0C0E0F3E0FE
:10048000E0E220E2D2D50A3018F00F3B08F401C0B8
:1004900004E6099301932A95A9F70895BFE0A0EB1C
:1004A000C4D50093E704BFE0A1EBBFD50093E804F7
:1004B000BFE0A2EBBAD50093E904BFE0A3EBB5D54A
:1004C0000093EA0408950F931F932F933F930CE03A
:1004D00010E020E0A89530919B0037FD06C02A95DA
:1004E000C9F71A95B1F70A9599F73F912F911F9186
:1004F0000F9108950F931F932F933F9306E010E001
:1005000020E0A89530919B0037FD06C02A95C9F7D9
:100510001A95B1F70A9599F73F912F911F910F9175
:1005200008950F931F932F933F9302E010E020E074
:10053000A89530919B0037FD06C02A95C9F71A95FA
:10054000B1F70A9599F73F912F911F910F91089557
:100550000FE001BD089508E101BD00E101BD00E02B
:1005600001BD089501E000938A00089500E0009322
:10057000610000E00ABB07BB04BB01BB02B90093EA
:1005800064000895009165000F7E0093650000915E
:100590006400006100936400089500916500077F86
:1005A0000093650000916400086000936400089562
:1005B0000091650000610093650000916400006196
:1005C0000093640008950091650008600093650041
:1005D0000091640008600093640008955527442743
:1005E00060E13695279510F4400F511F57954795B8
:1005F000379527956A95B9F708950027111B61E192
:10060000221F331F6A9509F40895001F111F041B50
:10061000150B20F4040F151F8894F2CF0894F0CF27
:10062000089502020504BE05000000919B0007FF2B
:1006300008950FD3102F107F103F59F0103E59F03E
:10064000103D59F0103B51F0103A51F0103848F07D
:1006500049F417D309C015D335C06DC012D39DC05E
:100660005EC0ABC00ED3A0C1003F09F49EC1013FE4
:1006700009F4AFC1023F09F44DC2033F09F45BC264
:10068000043F09F45FC2053F09F482C1063F09F443
:1006900082C1073F09F473C2083F09F481C20A3FCF
:1006A00009F490C20B3F09F4A1C20C3F09F4AAC29D
:1006B0000D3F09F4ABC20E3F09F4A9C20F3F09F484
:1006C000A7C260C11091D20410621093D204003E00
:1006D00009F4FEC0013E09F406C1023E09F40DC151
:1006E000033E09F414C1043E09F41BC1053E09F49C
:1006F00021C1063E09F427C1073E09F42DC1083E79
:1007000009F42FC1093E09F431C10A3E09F434C18C
:100710000B3E09F434C10C3E09F494C133C1003AD4
:1007200009F405C00F3A09F404C078942BC10C9465
:10073000E94E0C94DE4F1091D204003D31F41D7F40
:100740001093D20400ED0C947444013D31F4126016
:100750001093D20400ED0C947444023D09F47AC065
:10076000033D09F484C0043D09F485C0053D09F446
:1007700086C0063D09F487C0073D09F488C0083DDE
:1007800009F489C0093D09F48AC00A3D09F48BC007
:100790000B3D09F48CC07894F5C0003B09F411C0FE
:1007A000013B09F419C0023B09F41BC0033B09F4E7
:1007B00023C0043B09F431C0E5C0C0E4D1E00883A4
:1007C000E1C047D240E058E10E94102310F400E05D
:1007D00001C00FEF56D2D6C03CD20093DA0451D2FA
:1007E000D1C037D2003108F00FE0002309F401E056
:1007F0000093D40446D2C6C0AF93BF932AD250F020
:1008000040D2A02F26D230F03CD2B02F22D210F00E
:10081000EDD337D2BF91AF91C7C0AF93BF930095CF
:10082000302F17D2A0F02DD2031789F412D278F00E
:1008300028D2A02F0ED258F024D2B02F0AD238F0EE
:1008400020D2302FCBD305D210F0032F1AD2BF9174
:10085000AF91AAC016D2FDD1D0F113D2302FF9D169
:10086000B0F1032F0E94CD450C2F0BD28BC009D2C3
:1008700038E040E020C005D238E048E01CC001D29A
:1008800038E040E118C0FDD138E048E114C0F9D1AA
:1008900036E040E010C0F5D136E046E00CC0F1D1C2
:1008A00036E04CE008C0EDD136E042E104C0E9D1C9
:1008B00036E048E100C0CDD150F03F93042F0E94B4
:1008C000CD450C2FDED13F9143953A95A1F75AC003
:1008D000C0D1D7D1102F0E94CF0B2F93BAD12F9117
:1008E000022FCFD14FC0B5D1CCD10E94DA0D2F93BA
:1008F000B0D12F91022FC5D145C0ABD1C2D10E943A
:10090000890E2F93A6D12F91022FBBD13BC0A1D12D
:10091000B8D10F939ED1B5D11F91702F0E94F414BE
:1009200031C097D1AED10F9394D1ABD11F910E941A
:100930004F1328C08ED1A5D10F938BD1A2D11F9177
:100940000E94D01E1FC085D19CD10F9382D199D116
:100950001F910E94271F16C07CD193D10E941D1D9C
:1009600011C077D18ED10E94EB1D0CC072D189D1FC
:10097000102F0E94BC1E06C00E94464403C00E9465
:100980004C0600C01091D2041F7D1093D2040CC0FD
:100990000E94BF4303C00E94F04300C00BE009B9AE
:1009A00000E00093900000C00895F6E0E2E236E037
:1009B00050D140F0333039F0C895002D62D13196D6
:1009C0003A95B1F7F1CF31963A9500912D0559D16D
:1009D000EFCFF894402F27D16BD40095302F39D129
:1009E00020F14FD1031709F534D1F8F04AD1E02FA7
:1009F00030D1D8F046D1F02FCE2FDF2FAA27BB273A
:100A000028D198F0102FDED2011739F01197012F5D
:100A1000B6D21197D7D235D102C0012F32D131973A
:100A2000E03071F7F03061F705C00091D204006446
:100A30000093D20476DC0091D20404600093D204C7
:100A40007894B2CFF8941F922F923F924F920AE07F
:100A500010E01A95F1F70A95D9F703E00093990091
:100A600000E000939800DFD023D4F3D008F438C01E
:100A700008D1E02FEED008F433C003D1F02F319726
:100A8000BB27AA27EA17FB0708F001C027C0E1D05F
:100A900008F426C00F3309F023C001E2F2D000E8C9
:100AA000202EDEE0C0E01124D4D0D0F0100E099347
:100AB0002A94D1F7CED0A0F0101609F401C010C0CE
:100AC000DEE0C0E068D2DEE0C0E040E80E94E2077D
:100AD0001991011729F44A95C9F7D4CF05E401C04B
:100AE00008E5CFD04F903F902F901F901ADC0091D7
:100AF000D20404600093D20403E010E01A95F1F7E9
:100B00000A95D9F70FE20093990000E0009398004E
:100B100078944ACFAF93BF939CD050F0B2D0A02F1F
:100B200098D030F0AED0B02F94D010F03FD2A9D0F2
:100B3000BF91AF9139CF0091D2040061086000935A
:100B4000D20432CFAF93BF930095302F82D0A0F064
:100B500098D0031789F47DD078F093D0A02F79D066
:100B600058F08FD0B02F75D038F08BD0302FFBD10C
:100B700070D010F0032F85D0BF91AF9115CFAF93F8
:100B8000BF9367D050F07DD0C02F63D030F079D0C4
:100B9000D02F5FD010F0088174D0BF91AF9104CFF7
:100BA000AF93BF9356D058F06CD0C02F52D038F0CE
:100BB00068D0D02F4ED018F064D008830881BF9140
:100BC000AF91F2CED3E0C0EC7F9370E201E110E090
:100BD00023E030E003DD29937A95E9F70091D20410
:100BE00000640093D2047F911ED0DECE0091D20427
:100BF00002FD97DB0091D2040F7B0F7E0093D2049D
:100C00007894D2CE7BDBBEDCC8DCCECECDCECCCED3
:100C1000AF93BF931ED020F034D0B1E0A0E40C938A
:100C2000BF91AF91C1CEBF93AF93DF93CF930F939B
:100C30001F93B3E0A0E0D3E0C0E200E219911D935E
:100C40000A95E1F71F910F91CF91DF91AF91BF917D
:100C500008953F9314E120E030E0A89500919B00B7
:100C600007FF05C000919C0088943F9108953A9534
:100C7000A1F72A9589F71A9571F708943F910027F3
:100C800008950F93A89500919B0005FFFBCF0F914E
:100C900000939C00889408950E94290608F438C0A7
:100CA0000E944106402F0E94290690F10E944106B1
:100CB000502FD3E0C0E00E94CA232BD048F100910E
:100CC000D20407FF02C040E050E2BF93AF93B3E00D
:100CD000A0E0D3E0C0E2F4E0E0E00E94A723052F0B
:100CE0000E94A422F4E0E0E00E94D423052F0A959C
:100CF0000E94B322AF91BF91D3E0C0ECF4E0E0E0FA
:100D00000E94BF23052F0E94BF220E943123089515
:100D100008955F93502F0E94290668F00E944106B3
:100D2000003021F009935A95B1F702C02196FBCF0C
:100D300088945F91089508945F91089500916100EF
:100D40000F77009361000AE7A89514E61A95F1F76A
:100D5000079B03C00A95C1F718C0F89440D0A8F0CB
:100D600018D098F0003189F414D078F00F3E69F46F
:100D700010D058F0502F0DD040F00095051729F4F1
:100D8000052F039588947894089500E0089478944A
:100D9000089548E030E009D031F037954A95D9F709
:100DA000032F8894089508940895A8950FEF1EE1E5
:100DB000079905C01A95E1F70A95C9F70EC0A895DD
:100DC000202F0FEF1EE1079B05C01A95E1F70A954A
:100DD000C9F703C002179894089518940895A89528
:100DE0000AE710E51A95F1F7079921C00A95C9F7A6
:100DF000A89504EF10E51A95F1F7079903C00A9535
:100E0000C9F715C0A8950AE710E51A95F1F7079BF1
:100E10000EC00A95C9F7A8950AE710E51A95F1F7EB
:100E2000079B03C00A95C9F702C0889408950894E7
:100E30000895009161000F770093610000E0A8958C
:100E400010E01A950000000000000000079B04C09D
:100E5000C1F70A95A1F71BC0F8941DD0C0F063D06C
:100E6000B0F00030A1F45FD090F0003881F45BD096
:100E700070F0003061F457D050F0003841F43AD0AF
:100E800030F03695032F039588947894089500E008
:100E9000089478940895A89500E01BE1A895079917
:100EA00027C01A95D9F703950634B8F300E014E685
:100EB000A895079906C01A95D9F703950034C0F490
:100EC000F6CF00E01CE0A895079B12C01A95D9F751
:100ED00003950634B8F300E01CE0A895079B06C014
:100EE0001A95D1F70395083218F4F7CF889408952E
:100EF0000894089548E030E050E060E014D088F0B5
:100F0000413019F0002309F06095001F331F551F71
:100F10004A95A1F7532F51706170561711F48894B8
:100F200008950894089500E01CE0A895079906C06C
:100F30001A95D9F703950038A0F4F6CF202F00E0DA
:100F40001CE0A895079B06C01A95D9F703950038B1
:100F500040F4F6CF10E0201708F410E8012F889431
:100F6000089508940895A895BF93AF931F93109187
:100F7000C20443D01F91AF91BF9111960895A895D7
:100F8000BF93AF931F931091C2043DD01F91AF91B7
:100F9000BF9111960895A895BF93AF931F93109199
:100FA000C20435D01F91AF91BF910895A895BF930A
:100FB000AF931F931091C2042ED01F91AF91BF9198
:100FC00011960895A895BF93AF931F931091C204F3
:100FD00028D01F91AF91BF9111960895E199FECF4E
:100FE000AEBBBFBB0DBBE29AE19A0895E199FECF7B
:100FF000AEBBBFBBE09A0DB30895F8942F932BD0EE
:101000002F91789408952F9326D02F9108952F93A0
:1010100064D02F910895F8942F93A5D02F917894B0
:1010200008952F93A0D02F910895A895DFDF1196F2
:101030000895A895D3DF119608950AE000937000F3
:1010400004E900937400089500E00093700000E04C
:1010500000937400089524EA20937400F2D0209144
:101060007100287F283009F0E7C0110F106A109333
:10107000730024E820937400E4D020917100287F4D
:10108000283109F0D9C0B093730024E8209374008C
:10109000D8D020917100287F283209F0CDC0A093CC
:1010A000730024E820937400CCD020917100287F35
:1010B000283209F0C1C00093730004E80093740063
:1010C000C0D020917100287F283209F0B5C024E9F2
:1010D00020937400CBD00894089524EA20937400E0
:1010E000B0D020917100287F283009F0A5C0110FE1
:1010F000106A1093730024E820937400A2D020910A
:101100007100287F283109F097C0B093730024E85C
:101110002093740096D020917100287F283209F026
:101120008BC0A093730024E8209374008AD0209190
:101130007100287F283209F07FC040E809910093B0
:10114000730004E8009374007CD020917100287F24
:10115000283209F071C04A9589F724E92093740078
:1011600085D00894089524EA209374006AD008F08A
:1011700063C020917100287F283009F05DC0212FC5
:10118000220F206A2093730024E82093740059D022
:1011900008F052C020917100287F283109F04CC01E
:1011A000B093730024E8209374004BD008F044C03F
:1011B00020917100287F283209F03EC0A09373006F
:1011C00024E8209374003DD008F036C020917100CF
:1011D000287F283209F030C024EA2093740031D0EF
:1011E00008F02AC020917100287F203109F024C026
:1011F000212F220F216A2093730024E8209374008A
:1012000020D008F019C020917100287F203409F007
:1012100013C024E82093740014D008F00DC000918E
:10122000730020917100287F283509F005C024E95A
:10123000209374000894089524E9209374008894FE
:1012400008950F931F9304E110E0A8952091740076
:1012500027FF04C01F910F91089408951A95A9F7CC
:101260000A9591F71F910F91889408950EE6112722
:101270001A95F1F70A95D9F708950F930FEF0DBD61
:1012800000E00CBD00E00EBD00E004BD05E005BDC2
:1012900007B7046007BF00E000930A050F910895A7
:1012A0000F9301E00EBD00E003BF8D9A0F910895EA
:1012B0000F9300E00EBD05E003BF8D980F910895D8
:1012C000F4E1ECE4000FE00F08F4F395C895C02DAD
:1012D0003196C895D02D22E824BD26B726FFFDCF34
:1012E000207426BF1A95B9F70895A8950F93009119
:1012F0000A0502FDA9C0046000930A051F93FF932D
:10130000EF93BF93AF930FB70F9300910A0507FFB9
:101310008FC006FF0CC00F7B00930A0500910F05DC
:1013200000930D050091100500930E052DC000914E
:1013300008050DBD009109050CBD00910A0504FDCD
:1013400012C000910A0503FF08C0009106050023A2
:1013500021F404B5003F08F007C0959902C0959AA2
:1013600001C0959801C0959A06B706FF61C0007448
:1013700006BF0091050504BD00910605002321F07C
:101380000A950093060554C0B0910F05A091100571
:101390000E94D607002309F437C0009306050E9477
:1013A000D6070F9311960E94D6071197102F0F9111
:1013B000101721F410910A05186003C010910A0556
:1013C000177F10930A051197B0930F05A09310058E
:1013D0000F3731F4E0910A05E061E0930A0528C077
:1013E000E0910A05EF7EE0930A051CE0010FF4E1AD
:1013F000ECE4000FE00F08F4F39505910093090564
:1014000004910093080514C000910A0505FF0CC063
:10141000006400930A0500910D0500930F050091EB
:101420000E050093100504C00F7700930A0540DFF6
:101430000F910FBFAF91BF91EF91FF911F9100915D
:101440000A050B7F00930A050F910895D04C0357AE
:1014500070607769E671DE795E818488468F8D954C
:10146000899B2EA181A68EAB44B0C2B4FFB8FBBC51
:10147000C3C049C4AAC7D2CACFCDA2D04AD3D1D5FE
:101480002CD869DA8FDC8BDE68E030E2E3E373E5C9
:10149000D1E55CE8B0E9F4EA22EC42ED52EE52EF1D
:1014A00040F024F1F8F1C0F282F339F4E7F487F563
:1014B0001FF6ACF631F7B1F72FF8A2F808F96CF97E
:1014C000CFF927FA7CFACEFA1BFB62FBA5FBE4FB03
:1014D00020FC58FC8EFCC0FCF0FC1DFD49FD00000A
:1014E00000000000000000000000000000000000FC
:1014F00000000000C2DE00EC00930A0505E11CE4D8
:1015000000930F0510931005CBDE00910A0507FD2F
:10151000FCCF00EC00930A0505E112EE00930F05E5
:1015200010931005BDDE00910A0507FDFCCF00EC0D
:1015300000930A0506E11CE400930F0510931005C3
:10154000AFDE00910A0507FDFCCF08950C180C1AB8
:101550000C1C0C1D181F181F0C210C210C1F0C1D1E
:10156000301C181C0C1C0C1C0C1D0C1D181C481AC3
:10157000187F0C180C1A0C1C0C1D301F0C210C2190
:101580000C1F0C1D301C241D0C1C181A181A48188E
:10159000187F18210C210C1F0C210C2318240C1F60
:1015A0000C210C1F0C1D301C0C1D0C1D0C1D0C1CCB
:1015B000181A1818481F187F18210C210C1F0C210D
:1015C0000C2318240C1F0C210C1F0C1D301C0C1D8F
:1015D0000C1D0C1D0C1C181A0C1A0C1A4818187F1C
:1015E00000001824182130211822181F301F181D40
:1015F000181F18211822182418241824187F1824BA
:10160000182130211822181F301F181D18211824E6
:101610001824481D187F181F181F181F181F181F7F
:1016200018213022182118211821182118211822D8
:1016300030241824182130211822181F301F181D9B
:10164000182118241824481D187F0000181A0C1A95
:10165000241F0C1F0C1E0C1C241A061A061A061A2C
:10166000061A061A061A0C1F0C230C1F3C210C7FAD
:101670000C230C230C2324260C230C210C1F241CCC
:101680000C1A061A061A061A061A0C240C230C2128
:101690003C1F0C7F181E0C1F24210C1F0C1F0C213B
:1016A00024230C21062106210621062124253C267F
:1016B0000C7F181A0C1A241F0C1F0C1E0C1C241A49
:1016C0000C1A0C1A061A061A0C1F0C230C1F3C21AC
:1016D0000C7F0C230C230623062324260C230C2129
:1016E0000C1F241C0C1A0C1A061A061A0C240C23A4
:1016F0000C213C1F0C7F00000EEF0DBD04E80CBD5B
:1017000005E00EBD089506B7047006BF0EEF0DBDCF
:1017100004E80CBD0895689449DC88270093FD0C0B
:10172000003011F408940895003119F470E0E89441
:1017300031C0013119F471E0E8942CC0023121F478
:1017400035DC702FE89426C0033129F42FDC702F8C
:101750002DDC802F1FC0053131F428DCD1E0C02FF3
:101760007881E89417C0063139F420DCD1E0C02F2D
:101770007991888121970EC00B3161F417DCD1E09B
:10178000C02F788113DC072380E0003011F071E076
:1017900001C070E0889408950E948B0B172FE89485
:1017A000103029F4D0980000C899689497C111307E
:1017B00029F4D1980000C999689490C1123029F495
:1017C000D2980000CA99689489C1133029F4D3983B
:1017D0000000CB99689482C1143029F4D498000099
:1017E000CC9968947BC1153029F4D5980000CD9927
:1017F000689474C1163029F4D6980000CE99689484
:101800006DC1173029F4D7980000CF99689466C14C
:10181000183029F4B8980000B09968945FC1193065
:1018200029F4B9980000B199689458C11A3029F484
:10183000BA980000B299689451C11B3029F4BB9842
:101840000000B39968944AC11C3029F4BC98000088
:10185000B499689443C11D3029F4BD980000B5992E
:1018600068943CC11E3029F4BE980000B699689473
:1018700035C11F3029F4BF980000B79968942EC174
:10188000103129F4A79800009F99689427C111315D
:1018900029F4A69800009E99689420C1123129F479
:1018A000A59800009D99689419C1133129F4A49852
:1018B00000009C99689412C1143129F4A398000087
:1018C0009B9968940BC1153129F4A29800009A994C
:1018D000689404C1163129F4A1980000999968947C
:1018E000FDC0173129F4A098000098996894F6C0BB
:1018F000183129F4179800000F996894EFC0193136
:1019000029F4169800000E996894E8C01A3129F459
:101910008F98000087996894E1C01B3129F48E9854
:10192000000086996894DAC01C3129F48D98000073
:1019300085996894D3C01D3151F4009164000B7FE8
:10194000009364000091630002FD6894C7C01E31DB
:1019500051F4009164000D7F0093640000916300D6
:1019600001FD6894BBC01F3151F4009164000E7FEB
:10197000009364000091630000FD6894AFC01032D2
:1019800049F4009161000E7F0093610000B100FDF9
:101990006894A4C0113249F4009161000D7F009356
:1019A000610000B101FD689499C0123249F40091C0
:1019B00061000B7F0093610000B102FD68948EC04E
:1019C000133249F400916100077F0093610000B178
:1019D00003FD689483C0143249F4009161000F7EC6
:1019E0000093610000B104FD689478C0153249F499
:1019F000009161000F7D0093610000B105FD6894C6
:101A00006DC0163249F4009161000F7B00936100B4
:101A100000B106FD689462C0173249F4009161007C
:101A20000F770093610000B107FD689457C018322A
:101A300029F48A9800008299689450C0193229F4D8
:101A40008B9800008399689449C01A3229F48C98C5
:101A500000008499689442C01B3229F41098000059
:101A6000089968943BC01C3229F411980000099928
:101A7000689434C01D3229F4129800000A996894C1
:101A80002DC01E3229F4139800000B99689426C0CB
:101A90001F3229F4149800000C9968941FC0103369
:101AA00029F4159800000D99689418C0113351F469
:101AB00000916400077F009364000091630003FDC0
:101AC00068940CC0123351F4009164000F7E0093AF
:101AD00064000091630004FD689400C030E016F0DB
:101AE00020E001C021E00091D20405FD08950E948C
:101AF000CD1411960C9493000EDE072F07B9379A78
:101B0000369A000000003699FECF24B135B13795E2
:101B10002795379527952F93FEDD072F283C00F555
:101B2000223100F1253200F1253300F1233400F198
:101B3000203500F12A3500F1243600F12E3600F16F
:101B4000253700F12C3700F1223800F1283800F158
:101B50002D3800F1223900F1273900F12A3900F13E
:101B600020E020C021E01EC022E01CC023E01AC0FB
:101B700024E018C025E016C026E014C027E012C0FB
:101B800028E010C029E00EC02AE00CC02BE00AC0FB
:101B90002CE008C02DE006C02EE004C02FE002C0FB
:101BA00020E100C033270E94CD1411960C949300BD
:101BB000B2DD072F003071F0013041F0023039F012
:101BC000033031F0043029F00C94A25508C00CC049
:101BD0001BC042C000E00ABB000009B343C000E0E4
:101BE00007BB000006B33EC000E004BB000003B327
:101BF00020E038E0000F10F4089401C08894279585
:101C00003A95C1F7022F2EC0179816988F988E9884
:101C10008D98009164000B7F009364000091640034
:101C20000D7F00936400009164000E7F00936400B8
:101C300000E00F9901600E9902608799046086990F
:101C40000860859900611091630012FD006211FD2A
:101C5000006410FD006806C000E000936100000011
:101C600000B100C0202F1091D20415FD089530E07E
:101C7000202F0E94CD1411960C9493004CDD072F59
:101C8000102F145610F00C944E241ED007B9379A1A
:101C9000369A000000003699FECF24B135B100918C
:101CA000E104063161F00091E104053119F02227C9
:101CB000332705C0379527953795279533270E94F9
:101CC000CD1411960C94930010916100003071F0C6
:101CD000013071F0023071F0033071F0043071F0B6
:101CE000053071F0063071F0073071F01E7F0EC0C4
:101CF0001D7F0CC01B7F0AC0177F08C01F7E06C057
:101D00001F7D04C01F7B02C01F7700C010936100BD
:101D1000089510916100003071F0013071F00230CF
:101D200071F0033071F0043071F0053071F006305D
:101D300071F0073071F01E7F0EC01D7F0CC01B7F3D
:101D40000AC0177F08C01F7E06C01F7D04C01F7B0E
:101D500002C01F7700C01093610007B9379A369A06
:101D6000000000003699FECF24B135B13795279594
:101D70003795279533270091D20405FD08950C94DB
:101D800093000C949300C7DC072F003049F001301A
:101D900049F0023049F00330A1F0043041F12AC08B
:101DA0000BB328C008B326C005B320E038E0000F0D
:101DB00010F4089401C0889427953A95C1F7022F32
:101DC00019C000E013B117FD016016FD026012B3E7
:101DD00017FD046016FD086015FD00611091650097
:101DE00012FD006211FD006410FD006803C0009147
:101DF000620000C030E0202F0E94CD1411960C9498
:101E000093000C9493002091880030E00E94CD1440
:101E100011960C9493000E948B0BC72FD82F2991F9
:101E200038810E94CD1411960C9493000E948B0B64
:101E3000AF93BF93A72FB82F0E94D607202F0E94E1
:101E4000D607302FBF91AF9111960E94CD140C94FC
:101E5000930061DC072F003019F40E949E0605C034
:101E6000013019F40E94190700C0202F33270E9467
:101E7000CD1411960C949300102F0E94A8400C5181
:101E8000202F33270E94CD1411960C94930043DC2D
:101E9000072FF8940030B9F00130B1F00230A9F00A
:101EA0000330A1F0043099F0053091F0063089F04C
:101EB000073081F0083079F0093071F00A3069F0AC
:101EC0000B3061F09BC10BC02BC04BC06BC08BC0F3
:101ED000ABC0CBC0EBC00BC12BC14BC16BC1D09A07
:101EE000D198D89A0BE10A95F1F7D89808ECA89503
:101EF000C99907C000000000000000000A95B9F76A
:101F00007DC1F894D0E0C0E0A8950CE00A95F1F707
:101F1000C99B71C12196D233B9F7CC23A9F76EC101
:101F2000D29AD398DA9A0BE10A95F1F7DA9808EC8D
:101F3000A895CB9907C000000000000000000A959A
:101F4000B9F75CC1F894D0E0C0E0A8950CE00A9520
:101F5000F1F7CB9B50C12196D233B9F7CC23A9F727
:101F60004DC1D49AD598DC9A0BE10A95F1F7DC982B
:101F700008ECA895CD9907C0000000000000000003
:101F80000A95B9F73BC1F894D0E0C0E0A8950CE001
:101F90000A95F1F7CD9B2FC12196D233B9F7CC2307
:101FA000A9F72CC1D69AD798DE9A0BE10A95F1F7DA
:101FB000DE9808ECA895CF9907C00000000000004B
:101FC00000000A95B9F71AC1F894D0E0C0E0A895CE
:101FD0000CE00A95F1F7CF9B0EC12196D233B9F7E9
:101FE000CC23A9F70BC1B89AB998C09A0BE10A950E
:101FF000F1F7C09808ECA895B19907C0000000005F
:10200000000000000A95B9F7F9C0F894D0E0C0E0EC
:10201000A8950CE00A95F1F7B19BEDC02196D2335B
:10202000B9F7CC23A9F7EAC0BA9ABB98C29A0BE1D8
:102030000A95F1F7C29808ECA895B39907C000007B
:102040000000000000000A95B9F7D8C0F894D0E06D
:10205000C0E0A8950CE00A95F1F7B39BCCC021969F
:10206000D233B9F7CC23A9F7C9C0BC9ABD98C49A9A
:102070000BE10A95F1F7C49808ECA895B59907C04B
:1020800000000000000000000A95B9F7B7C0F894FE
:10209000D0E0C0E0A8950CE00A95F1F7B59BABC085
:1020A0002196D233B9F7CC23A9F7A8C0BE9ABF981E
:1020B000C69A0BE10A95F1F7C69808ECA895B7996E
:1020C00007C000000000000000000A95B9F796C0A4
:1020D000F894D0E0C0E0A8950CE00A95F1F7B79B22
:1020E0008AC02196D233B9F7CC23A9F787C0A09A2A
:1020F000A198A89A0BE10A95F1F7A89808ECA89581
:10210000999907C000000000000000000A95B9F787
:1021100075C0F894D0E0C0E0A8950CE00A95F1F7FE
:10212000999B69C02196D233B9F7CC23A9F766C031
:10213000A29AA398AA9A0BE10A95F1F7AA9808EC3B
:10214000A8959B9907C000000000000000000A95B8
:10215000B9F754C0F894D0E0C0E0A8950CE00A9517
:10216000F1F79B9B48C02196D233B9F7CC23A9F74E
:1021700045C0A49AA598AC9A0BE10A95F1F7AC98E2
:1021800008ECA8959D9907C0000000000000000021
:102190000A95B9F733C0F894D0E0C0E0A8950CE0F8
:1021A0000A95F1F79D9B27C02196D233B9F7CC232E
:1021B000A9F724C0A69AA798AE9A0BE10A95F1F761
:1021C000AE9808ECA8959F9907C000000000000099
:1021D00000000A95B9F712C0F894D0E0C0E0A895C5
:1021E0000CE00A95F1F79F9B06C02196D233B9F710
:1021F000CC23A9F703C03D2F2C2F02C030E020E0F4
:102200000E94CD14119678940C94930084DA072FD1
:10221000003210F40C94C64530E020E00E94CD144A
:102220000C94930000270093C5040E94D607102F3A
:102230000E94D607202F0E948B0B372F482F0E9419
:10224000D6070F930E948B0B977C481729F010F448
:1022500098600AC0906208C0371729F010F498609F
:1022600003C0906201C090610F91003319F493FD97
:102270001AC021C0013319F495FD15C01CC00233EA
:1022800019F495FF10C017C0033319F493FF0BC066
:1022900012C0043319F494FF06C00DC0053319F4BD
:1022A00094FD01C008C00091C50407FD02C0006490
:1022B0000AC0006208C00091C50407FD02C00F7B80
:1022C00002C00F7D00C000680093C5040E94D607BD
:1022D000003081F0073211F0083206C00091C504C9
:1022E00000610093C504A7CF0091C5040860009366
:1022F000C504A1CF0091C50404FD03C003FD06C0C1
:102300000AC006FF0EC005FF0CC008C006FD06C0CF
:1023100005FD04C006C006FF04C000C0F0E0E3E90C
:102320000994A12FB22FF0E0E3E90994F4D90FB793
:102330000F93CF93DF93EFD9DF91CF910F910FBF21
:1023400079930EF48883F0E0E3E90994E4D911E08D
:1023500020E0710F821F799316F488831BC07030C0
:1023600009F018C00E94D607102F0E94D607A12F8F
:10237000B02F1196D0D9CFD90DC0CDD9172F282F76
:10238000CAD9821738F011F4711720F01296F0E0D4
:10239000E3E909940E94D607102F0E94D607A12FC7
:1023A000B02FF0E0E3E90994CA2FDB2F22961C2F0F
:1023B0002D2FC091D504D091D60419932993C093A1
:1023C000D504D093D604E6CFC091D504D091D604DD
:1023D0002A911A91C093D504D093D604A12FB22F7D
:1023E000F0E0E3E909940E948B0B0E94D607701776
:1023F00030F4072F000F10E0A00FB11FCBCF000F5C
:1024000010E0A00FB11FF0E0E3E90994F0E0E3E988
:102410000994F0E0E3E90994F0E0E3E9099400911C
:10242000D20400610093D204F0E0E3E909940E9431
:102430008B0BC72FD82F0E948B0B7993882309F021
:102440008883F0E0E3E909940E948B0BC72FD82F13
:102450000E948B0B072FAF93BF93AC2FBD2F0E9411
:10246000B307882319F0082F0E94B307BF91AF91DB
:10247000F0E0E3E90994F0E0E3E90994F0E0E3E94E
:1024800009940BE10E94DA2509E40E94DA250BE1A8
:102490000E94DA2509E40E94DA25F0E0E3E90994D4
:1024A0000BE10E94DA2508E40E94DA250BE10E9484
:1024B000DA2508E40E94DA25F0E0E3E909940BE16B
:1024C0000E94DA250CE40E94DA250E948B0B072F6C
:1024D00010E3010F0E94DA250E948B0B072F10E3F7
:1024E000010F0E94DA25F0E0E3E909940E94D60783
:1024F000083161F4A8950E94D607003081F0109150
:102500009B0017FDF7CF0E94DA25F4CF093109F4BB
:1025100009D00A3109F41DD00B3109F45ED0F0E086
:10252000E3E909940E948B0B072F16F40DC0089560
:102530000F9302950F706AD00E94DA250F910F70E9
:1025400065D00E94DA250895082FF2DF072FF0DF0B
:1025500008950E948B0B072F16F418C008951127B9
:102560005ED0DF920E2D0F7051D00E94DA25DF90E1
:10257000DF920D2D02950F7049D00E94DA25DF9071
:102580000D2D0F7043D00E94DA250895072F182FC4
:1025900046D0DF92EF920F2D0F7038D00E94DA25CF
:1025A000EF90EF920E2D02950F7030D00E94DA2539
:1025B000EF900E2D0F702AD00E94DA25DF90DF9267
:1025C0000D2D02950F7022D00E94DA25DF900D2D7F
:1025D0000F701CD00E94DA2508950E948B0B072FE4
:1025E00016F40FC00895102F28E0111F20F401E306
:1025F0000E94DA2503C000E30E94DA252A95A9F794
:102600000895082FF0DF072FEEDF0895A895F3EC6B
:10261000E2EFE00F08F4F395C895002D089520E14E
:10262000FF24EE24DD24FF27000F111FDD1CEE1C0C
:10263000FF1C2A9509F40CC0E0E132913D5F33FDA7
:1026400030833081305D37FD3083ED30B1F7ECCF32
:1026500008950BE10E94DA250FE40E94DA25F0E0EC
:10266000E3E909940BE10E94DA2508E50E94DA25E6
:10267000F0E0E3E909940BE10E94DA2503E40E940B
:10268000DA250E948B0B072F0E94DA25F0E0E3E9A0
:1026900009940E948B0B172F0E948B0B072F103071
:1026A00089F0113051F0123049F0133041F01430FC
:1026B00039F0153031F00C949B550CC013C026C076
:1026C00052C057C01091EB041030F9F40BBB0FEF60
:1026D0000ABB50C01091EC041030B9F408BB0FEFE6
:1026E00007BB48C01091ED04103009F043C020E052
:1026F00038E0000F10F4089401C0889427953A95AB
:10270000C1F725BB0FEF04BB35C034C01091EE04F8
:10271000103081F5179A169A8F9A8E9A8D9A109189
:10272000640017601093640000FD1F9A00FF1F985B
:1027300001FD1E9A01FF1E9802FD979A02FF9798CD
:1027400003FD969A03FF969804FD959A04FF9598C9
:1027500010916500187F05FD146006FD126007FDED
:10276000116010936500009362000FEF0093610009
:1027700001C000C00091D20405FD08950C9493009F
:102780000C9493000091DE04003091F40091E30476
:102790000F3F71F40091E4040F3F51F40091E50400
:1027A0000F3F31F40091E6040F3F11F40C949300B5
:1027B00011970C9493000091D20400640093D2040A
:1027C0000C9493000091D2040F7B0093D2040C94DC
:1027D00093000E94D6071091E7040F73107C012B21
:1027E0000093E704BF93AF93BFE0A0EB0E941908EA
:1027F000AF91BF910C9493000E94D6070093DA0426
:102800000C9493000E948B0B172F0E948B0B272F89
:102810000E948B0B072F213049F0223039F02330F2
:1028200029F0243019F0253009F023E0103029F088
:102830001130B9F0123049F13CC0139A10918B005D
:10284000002311F0116801C01F7310938B0018E072
:10285000122B10938A0010E01093870000938600DB
:1028600028C0149A10918B00002311F0116201C04E
:102870001F7C10938B0018E0122B10938A0010E03D
:10288000109385000093840014C0159A10918B005A
:10289000002311F0196001C0137F10938B0018E022
:1028A000122B10938A0010E0109383000093820093
:1028B00000C00C9493000E94D6070093E1040E948C
:1028C000D6070093DF0401E00093E0040091E104E7
:1028D0000B3121F40E94D6070093E2040E94D60730
:1028E0001197007F003F89F00E948B0B272F382F14
:1028F0000E94D607003039F0402F0E948B0B0E94B7
:1029000087140C9478140E94CD140C9493004132D7
:1029100099F04232A1F04332A9F04432C1F046327C
:10292000D9F0473201F1483209F14A3211F14C3203
:1029300019F14D3249F130C0270F381F0895271B78
:10294000380B0895072F182F0E94EE020895472F85
:10295000582F0E94FD020895472F582F0E94FD0214
:10296000202F312F0895272338230895272B382B24
:102970000895272738270895772329F08894221F60
:10298000331F7A95F9CF0895772329F088943795E6
:1029900027957A95F9CF08950895D091E004C091D4
:1029A000DF040091E104053129F0063129F00B31F3
:1029B00031F0089528830895299338830895088174
:1029C0001091E204203031F4303021F410950123CD
:1029D00008830895012B088308950E948B0B172FFD
:1029E000143600F00E948B0B772311F40C94B01670
:1029F000103021F4D09AD89A0C946618113021F432
:102A0000D19AD99A0C946618123021F4D29ADA9A93
:102A10000C946618133021F4D39ADB9A0C94661840
:102A2000143021F4D49ADC9A0C946618153021F4F1
:102A3000D59ADD9A0C946618163021F4D69ADE9A4F
:102A40000C946618173021F4D79ADF9A0C94661804
:102A5000183021F4B89AC09A0C946618193021F4F1
:102A6000B99AC19A0C9466181A3021F4BA9AC29A8B
:102A70000C9466181B3021F4BB9AC39A0C94661808
:102A80001C3021F4BC9AC49A0C9466181D3021F4B1
:102A9000BD9AC59A0C9466181E3021F4BE9AC69A47
:102AA0000C9466181F3021F4BF9AC79A0C946618CC
:102AB000103121F4A79AAF9A0C946618113121F4C1
:102AC000A69AAE9A0C946618123121F4A59AAD9A82
:102AD0000C946618133121F4A49AAC9A0C946618DD
:102AE000143121F4A39AAB9A0C946618153121F491
:102AF000A29AAA9A0C946618163121F4A19AA99A5E
:102B00000C946618173121F4A09AA89A0C946618B0
:102B1000183121F4179A1F9A0C946618193121F470
:102B2000169A1E9A0C9466181A3121F48F9A979A65
:102B30000C9466181B3121F48E9A969A0C946618A0
:102B40001C3121F48D9A959A0C9466181D3161F40C
:102B500000916400046000936400009165000460CB
:102B6000009365000C9466181E3161F400916400B6
:102B700002600093640000916500026000936500AC
:102B80000C9466181F3161F4009164000160009399
:102B90006400009165000160009365000C94661864
:102BA000103261F4009161000160009361000091B6
:102BB00062000160009362000C946618113261F4A7
:102BC0000091610002600093610000916200026068
:102BD000009362000C946618123261F40091610057
:102BE0000460009361000091620004600093620041
:102BF0000C946618133261F4009161000860009330
:102C00006100009162000860009362000C946618F5
:102C1000143261F400916100006100936100009141
:102C200062000061009362000C946618153261F432
:102C300000916100006200936100009162000062F7
:102C4000009362000C946618163261F400916100E2
:102C500000640093610000916200006400936200D0
:102C60000C946618173261F40091610000680093BB
:102C70006100009162000068009362000C94661885
:102C8000183221F48A9A929A0C946618193221F417
:102C90008B9A939A0C9466181A3221F48C9A949A0F
:102CA0000C9466181B3221F4109A189A0C9466182A
:102CB0001C3221F4119A199A0C9466181D3221F4D1
:102CC000129A1A9A0C9466181E3221F4139A1B9ABF
:102CD0000C9466181F3221F4149A1C9A0C946618EE
:102CE000103321F4159A1D9A0C946618113361F46F
:102CF0000091640008600093640000916500086022
:102D0000009365000C946618123361F4009164001E
:102D1000006100936400009165000061009365000C
:102D20000C946618133361F40091640008600093FA
:102D30006400009165000860009365000C946618BB
:102D4000143361F400916400006100936400009109
:102D500065000061009365000C9466180C94661879
:102D6000103021F4D09AD8980C946618113021F4C0
:102D7000D19AD9980C946618123021F4D29ADA9824
:102D80000C946618133021F4D39ADB980C946618CF
:102D9000143021F4D49ADC980C946618153021F480
:102DA000D59ADD980C946618163021F4D69ADE98E0
:102DB0000C946618173021F4D79ADF980C94661893
:102DC000183021F4B89AC0980C946618193021F480
:102DD000B99AC1980C9466181A3021F4BA9AC2981C
:102DE0000C9466181B3021F4BB9AC3980C94661897
:102DF0001C3021F4BC9AC4980C9466181D3021F440
:102E0000BD9AC5980C9466181E3021F4BE9AC698D7
:102E10000C9466181F3021F4BF9AC7980C9466185A
:102E2000103121F4A79AAF980C946618113121F44F
:102E3000A69AAE980C946618123121F4A59AAD9812
:102E40000C946618133121F4A49AAC980C9466186B
:102E5000143121F4A39AAB980C946618153121F41F
:102E6000A29AAA980C946618163121F4A19AA998EE
:102E70000C946618173121F4A09AA8980C9466183F
:102E8000183121F4179A1F980C946618193121F4FF
:102E9000169A1E980C9466181A3121F48F9A9798F6
:102EA0000C9466181B3121F48E9A96980C9466182F
:102EB0001C3121F48D9A95980C9466181D3161F49B
:102EC00000916400046000936400009165000B7F32
:102ED000009365000C9466181E3161F40091640043
:102EE000026000936400009165000D7F009365000F
:102EF0000C9466181F3161F4009164000160009326
:102F00006400009165000E7F009365000C946618C4
:102F1000103261F400916100016000936100009142
:102F200062000E7F009362000C946618113261F407
:102F300000916100026000936100009162000D7FCA
:102F4000009362000C946618123261F400916100E3
:102F5000046000936100009162000B7F00936200A7
:102F60000C946618133261F40091610008600093BC
:102F7000610000916200077F009362000C94661864
:102F8000143261F4009161000061009361000091CE
:102F900062000F7E009362000C946618153261F493
:102FA00000916100006200936100009162000F7D5A
:102FB000009362000C946618163261F4009161006F
:102FC000006400936100009162000F7B0093620037
:102FD0000C946618173261F4009161000068009348
:102FE0006100009162000F77009362000C946618F4
:102FF000183221F48A9A92980C946618193221F4A6
:103000008B9A93980C9466181A3221F48C9A94989F
:103010000C9466181B3221F4109A18980C946618B8
:103020001C3221F4119A19980C9466181D3221F45F
:10303000129A1A980C9466181E3221F4139A1B984F
:103040000C9466181F3221F4149A1C980C9466187C
:10305000103321F4159A1D980C946618113361F4FD
:103060000091640008600093640000916500077F90
:10307000009365000C946618123361F400916400AB
:10308000006100936400009165000F7E009365006D
:103090000C946618133361F4009164000860009387
:1030A000640000916500077F009365000C9466182A
:1030B000143361F400916400006100936400009196
:1030C00065000F7E009365000C9466180091D20491
:1030D00005FD08950C9493000E948B0B172F103060
:1030E00059F4D09A0BB311E001270BBB50D2012742
:1030F0000BBBF0E0E3E90994113059F4D19A0BB31A
:1031000012E001270BBB43D201270BBBF0E0E3E940
:103110000994123059F4D29A0BB314E001270BBB77
:1031200036D201270BBBF0E0E3E90994133059F4E0
:10313000D39A0BB318E001270BBB29D201270BBB95
:10314000F0E0E3E90994143059F4D49A0BB310E198
:1031500001270BBB1CD201270BBBF0E0E3E909946C
:10316000153059F4D59A0BB310E201270BBB0FD2DF
:1031700001270BBBF0E0E3E90994163059F4D69A25
:103180000BB310E401270BBB02D201270BBBF0E00D
:10319000E3E90994173059F4D79A0BB310E80127E3
:1031A0000BBBF5D101270BBBF0E0E3E90994183024
:1031B00059F4B89A08B311E0012708BBE8D10127F8
:1031C00008BBF0E0E3E90994193059F4B99A08B35F
:1031D00012E0012708BBDBD1012708BBF0E0E3E9DF
:1031E00009941A3059F4BA9A08B314E0012708BBBD
:1031F000CED1012708BBF0E0E3E909941B3059F474
:10320000BB9A08B318E0012708BBC1D1012708BB4E
:10321000F0E0E3E909941C3059F4BC9A08B310E1DA
:10322000012708BBB4D1012708BBF0E0E3E909940A
:103230001D3059F4BD9A08B310E2012708BBA7D18D
:10324000012708BBF0E0E3E909941E3059F4BE9A67
:1032500008B310E4012708BB9AD1012708BBF0E0AE
:10326000E3E909941F3059F4BF9A08B310E8012725
:1032700008BB8DD1012708BBF0E0E3E909941031C8
:1032800059F4A79A05B310E8012705BB80D101279F
:1032900005BBF0E0E3E90994113159F4A69A05B3AE
:1032A00010E4012705BB73D1012705BBF0E0E3E97A
:1032B0000994123159F4A59A05B310E2012705BB10
:1032C00066D1012705BBF0E0E3E90994133159F415
:1032D000A49A05B310E1012705BB59D1012705BB0D
:1032E000F0E0E3E90994143159F4A39A05B318E026
:1032F000012705BB4CD1012705BBF0E0E3E90994A8
:10330000153159F4A29A05B314E0012705BB3FD14A
:10331000012705BBF0E0E3E90994163159F4A19ABD
:1033200005B312E0012705BB32D1012705BBF0E050
:10333000E3E90994173159F4A09A05B311E0012784
:1033400005BB25D1012705BBF0E0E3E9099418315D
:1033500059F4179A03B110E8012703B918D10127CE
:1033600003B9F0E0E3E90994193159F4169A03B16D
:1033700010E4012703B90BD1012703B9F0E0E3E919
:1033800009941A3159F48F9A02B310E8012702BB4D
:10339000FED0012702BBF0E0E3E909941B3159F4A8
:1033A000169A03B110E4012703B9F1D0012703B93C
:1033B000F0E0E3E909941C3159F4159A03B110E2E5
:1033C000012703B9E4D0012703B9F0E0E3E9099448
:1033D0001D3191F400916400046000936400009139
:1033E000650014E0012700936500D1D00127009308
:1033F0006500F0E0E3E909941E3191F40091640066
:103400000260009364000091650012E001270093C0
:103410006500BDD0012700936500F0E0E3E9099461
:103420001F3191F4009164000160009364000091E9
:10343000650011E0012700936500A9D001270093E2
:103440006500F0E0E3E90994103291F40091610025
:103450000160009361000091620011E00127009378
:10346000620095D0012700936200F0E0E3E909943F
:10347000113291F4009161000260009361000091AB
:10348000620012E001270093620081D001270093BF
:103490006200F0E0E3E90994123291F400916100D6
:1034A0000460009361000091620014E00127009322
:1034B00062006DD0012700936200F0E0E3E9099417
:1034C000133291F400916100086000936100009153
:1034D000620018E001270093620059D00127009391
:1034E0006200F0E0E3E90994143291F40091610084
:1034F0000061009361000091620010E101270093D8
:10350000620045D0012700936200F0E0E3E90994EE
:10351000153291F400916100006200936100009106
:10352000620010E201270093620031D0012700936E
:103530006200F0E0E3E90994163291F40091610031
:103540000064009361000091620010E40127009381
:1035500062001DD0012700936200F0E0E3E90994C6
:10356000173291F4009161000068009361000091AE
:10357000620010E801270093620009D00127009340
:103580006200F0E0E3E90994F0E0E3E9099425E062
:103590002A95F1F708950E948B0B172F103041F4F4
:1035A0000BB321E002270BBBD09AF0E0E3E90994CA
:1035B000113041F40BB322E002270BBBD19AF0E0AB
:1035C000E3E90994123041F40BB324E002270BBB6A
:1035D000D29AF0E0E3E90994133041F40BB328E008
:1035E00002270BBBD39AF0E0E3E90994143041F4CD
:1035F0000BB320E102270BBBD49AF0E0E3E9099476
:10360000153041F40BB320E202270BBBD59AF0E052
:10361000E3E90994163041F40BB320E402270BBB15
:10362000D69AF0E0E3E90994173041F40BB320E8AF
:1036300002270BBBD79AF0E0E3E90994183041F474
:1036400008B321E0022708BBB89AF0E0E3E9099447
:10365000193041F408B322E0022708BBB99AF0E020
:10366000E3E909941A3041F408B324E0022708BBC7
:10367000BA9AF0E0E3E909941B3041F408B328E07A
:10368000022708BBBB9AF0E0E3E909941C3041F43F
:1036900008B320E1022708BBBC9AF0E0E3E90994F3
:1036A0001D3041F408B320E2022708BBBD9AF0E0C8
:1036B000E3E909941E3041F408B320E4022708BB73
:1036C000BE9AF0E0E3E909941F3041F408B320E822
:1036D000022708BBBF9AF0E0E3E90994103141F4F6
:1036E00005B320E8022705BBA79AF0E0E3E90994B7
:1036F000113141F405B320E4022705BBA69AF0E09E
:10370000E3E90994123141F405B320E2022705BB35
:10371000A59AF0E0E3E90994133141F405B320E1FF
:10372000022705BBA49AF0E0E3E90994143141F4BF
:1037300005B328E0022705BBA39AF0E0E3E909946A
:10374000153141F405B324E0022705BBA29AF0E04D
:10375000E3E90994163141F405B322E0022705BBE1
:10376000A19AF0E0E3E90994173141F405B321E0AF
:10377000022705BBA09AF0E0E3E90994183141F46F
:1037800003B120E8022703B9179AF0E0E3E90994AE
:10379000193141F403B120E4022703B9169AF0E08D
:1037A000E3E909941A3141F402B320E8022702BB8D
:1037B0008F9AF0E0E3E909941B3141F402B320E46D
:1037C000022702BB8E9AF0E0E3E909941C3141F430
:1037D00002B320E2022702BB8D9AF0E0E3E90994EC
:1037E0001D3171F40091650024E00227009365000B
:1037F00010916400146010936400F0E0E3E9099410
:103800001E3171F40091650022E0022700936500EB
:1038100010916400126010936400F0E0E3E90994F1
:103820001F3171F40091650021E0022700936500CB
:1038300010916400116010936400F0E0E3E90994D2
:10384000103271F40091620021E0022700936200BF
:1038500010916100116010936100F0E0E3E90994B8
:10386000113271F40091620022E00227009362009D
:1038700010916100126010936100F0E0E3E9099497
:10388000123271F40091620024E00227009362007A
:1038900010916100146010936100F0E0E3E9099475
:1038A000133271F40091620028E002270093620055
:1038B00010916100186010936100F0E0E3E9099451
:1038C000143271F40091620020E10227009362003B
:1038D00010916100106110936100F0E0E3E9099438
:1038E000153271F40091620020E202270093620019
:1038F00010916100106210936100F0E0E3E9099417
:10390000163271F40091620020E4022700936200F5
:1039100010916100106410936100F0E0E3E90994F4
:10392000173271F40091620020E8022700936200D0
:1039300010916100106810936100F0E0E3E90994D0
:10394000F0E0E3E909940E948B0B889487957795C2
:103950008894879577957093DC048093DD040FEF4E
:103960000093DE04F0E0E3E909940E94D607F9E34E
:10397000ECEEE00F08F4F395C895002D19B110177F
:1039800009F009B910919000101711F000E00093B0
:1039900090005F9B0BC011960E94D607D1E0C02F0C
:1039A0000CB108831296F0E0E3E909941296F1E174
:1039B000EAEC09940E94D607F9E3ECEEE00F08F474
:1039C000F395C895002D19B1101709F009B9109198
:1039D0009000101711F000E0009390005D9BFECF67
:1039E0000E948B0B7CB9F0E0E3E90994BF5F2F1FC5
:1039F000170F0B07050301000E948B0B20F0072F08
:103A00000E94DA25F9CFF0E0E3E909940C949300E1
:103A1000D3E0C0E426E00E94F922AF93BF93D3E045
:103A2000C0E4BFE0A0EE26E00E940423BF91AF9166
:103A30000C9493000E948B0B072F003019F401E0C7
:103A4000D09AA8C0013019F402E0D19AA3C0023084
:103A500019F404E0D29A9EC0033019F408E0D39A16
:103A600099C0043019F400E1D49A94C0053019F4D7
:103A700000E2D59A8FC0063019F400E4D69A8AC0C5
:103A8000073019F400E8D79A85C0083019F401E02E
:103A9000B89A86C0093019F402E0B99A81C00A3098
:103AA00019F404E0BA9A7CC00B3019F408E0BB9A10
:103AB00077C00C3019F400E1BC9A72C00D3019F4D3
:103AC00000E2BD9A6DC00E3019F400E4BE9A68C0E1
:103AD0000F3019F400E8BF9A63C0003119F401E017
:103AE000A79A64C0013119F402E0A69A5FC00231BE
:103AF00019F404E0A59A5AC0033119F408E0A49A15
:103B000055C0043119F400E1A39A50C0053119F4ED
:103B100000E2A29A4BC0063119F400E4A19A46C013
:103B2000073119F400E8A09A41C0083119F401E006
:103B3000179A42C0093119F402E0169A3DC00A31C1
:103B400019F404E08F9A38C00B3119F408E08E9A0A
:103B500033C00C3119F400E18D9A2EC00D3139F4C7
:103B600000E22091640024602093640025C00E319F
:103B700039F400E4209164002260209364001CC0AA
:103B80000F3139F400E82091640021602093640033
:103B900013C018C01091EB04012B0093EB0412C06A
:103BA0001091EC04012B0093EC040CC01091ED0477
:103BB000012B0093ED0406C01091EE04012B00933D
:103BC000EE0400C00091D20405FD08950C9493000A
:103BD0000E948B0B072F003011F401E07DC00130F3
:103BE00011F402E079C0023011F404E075C0033032
:103BF00011F408E071C0043011F400E16DC005302B
:103C000011F400E269C0063011F400E465C0073029
:103C100011F400E861C0083011F401E064C009301B
:103C200011F402E060C00A3011F404E05CC00B3013
:103C300011F408E058C00C3011F400E154C00D300C
:103C400011F400E250C00E3011F400E44CC00F300B
:103C500011F400E848C0003111F401E04BC001311B
:103C600011F402E047C0023111F404E043C0033113
:103C700011F408E03FC0043111F400E13BC005310C
:103C800011F400E237C0063111F400E433C007310B
:103C900011F400E82FC0083111F401E032C00931FD
:103CA00011F402E02EC00A3111F404E02AC00B31F5
:103CB00011F408E026C00C3111F400E122C00D31EE
:103CC00011F400E21EC00E3111F400E41AC00F31ED
:103CD00011F400E816C01CC01091EB0400950123FC
:103CE0000093EB0415C01091EC04009501230093A0
:103CF000EC040EC01091ED04009501230093ED0437
:103D000007C01091EE04009501230093EE0400C05B
:103D10000091D20405FD08950C9493000091E304F2
:103D20000F730F3311F5D3E0C0E006E001D4BF9369
:103D3000AF93B3E0A0E0D3E0C0E2F4E0E0E006E05F
:103D400003D4F4E0E0E005E00ED4AF91BF91D3E0FE
:103D5000C0ECF4E0E0E006E012D40091E304007C63
:103D60000093E304F0E0E3E909941197F0E0E3E95C
:103D700009940E948B0B172F103108F01FE01123BC
:103D800009F411E01093D4040091D20405FD0895C4
:103D90000C9493000E948B0B172F0E948B0B072F04
:103DA000103029F01130B1F0123039F139C0139AC6
:103DB00010918B00002311F0116801C01F73109344
:103DC0008B001BE010938A0010E010938700009393
:103DD000860026C0149A10918B00002311F0116206
:103DE00001C01F7C10938B001BE010938A0010E031
:103DF000109385000093840013C0159A10918B00D6
:103E0000002311F0196001C0137F10938B001BE099
:103E100010938A0010E0109383000093820000C08A
:103E20000091D20405FD08950C949300F3E0E0E0C6
:103E30000E948B0B172FE70F08F4F3950E948B0B52
:103E4000772319F070830E94301F0C949300F3E0E5
:103E5000E0E0E10F08F4F39500830E94301F08951D
:103E6000D3E0C0ECC10F08F4D3950091D40410E066
:103E700031E1130F0A95E9F7188308950E94D607D8
:103E8000402F0E94D607502FCBD348F5D3E0C0E097
:103E900081D4052F4DD30091D20407FF02C040E02A
:103EA00050E2BF93AF93B3E0A0E0D3E0C0E2F4E010
:103EB000E0E04DD4052F48D3F4E0E0E075D4052FC1
:103EC0000A9551D3AF91BF91D3E0C0ECF4E0E0E0AC
:103ED00056D4052F54D3C5D3F0E0E3E909941397E2
:103EE000F0E0E3E9099411960E94D607502F66D4BA
:103EF000F0E0E3E909940E94D607402F0E94D6071C
:103F0000502FBF93AF93A42FB52F11960E94D607C1
:103F1000402F0E94D607502F83D398F5D3E0C0E0FE
:103F200039D4052F05D3B3E0A0E0D3E0C0E2F4E03C
:103F3000E0E00091D20407FD03C009D4052F01C0C1
:103F400000E202D3F4E0E0E00091D20407FD03C0F8
:103F50002BD4052F02C000E20A9505D3D3E0C0ECB4
:103F6000F4E0E0E00091D20407FD03C008D4052F7F
:103F700001C000E204D375D3AF91BF91F0E0E3E953
:103F80000994AF91BF911397F0E0E3E909940E947F
:103F9000D607402F0E94D607502FD3E0C0E4FAD3B3
:103FA000252F0E94F922AF93BF93D3E0C0E4BFE076
:103FB000A0EED9D3252F0E940423BF91AF91F0E04A
:103FC000E3E909940E94D607402F0E94D607502F9C
:103FD0000E94D607602F0E946023F0E0E3E9099475
:103FE0000E94D607402F0E94D607502FDFE0C0EC7A
:103FF000D1D3252F0E94D607BF93AF93BD2FAC2FEF
:10400000102F0E941508011721F0012FA1500E94C6
:104010001908DB2FCA2FAF91BF912A9559F70C943D
:1040200093000E94D607003099F00130A9F00230C9
:10403000B9F00330D9F00430F9F0053019F1063049
:1040400039F10E3F09F02AC00F3F09F05EC094C05D
:1040500000E00093EF0490C00FEF0093EF048CC0DA
:104060000091F0040F770093F00486C00091F004F3
:1040700000680093F00480C00BE009B900E00093F1
:1040800090007AC00091D2040F770093D20474C0DC
:104090000091D20400680093D2046EC00E942408EC
:1040A00000E00AB900E00BBB08BB05BB03B90093F5
:1040B00062000093650000E202BB13E00FEF0ABB51
:1040C00007BB04BB01BB02B900936100009364000D
:1040D0000E9463020E94630200E00ABB07BB04BBAC
:1040E00001BB02B900936100009364000E94630267
:1040F0001A9521F70E94B6020E941D080AB10861B4
:104100000E94C2020E94CD0237C00E94240800E033
:104110000AB90FEF0ABB07BB04BB01BB02B900938E
:1041200061000093640013E00FEF0BBB08BB05BBFD
:1041300002BB03B900936200009365000E94630212
:104140000E94630200E00BBB08BB05BB03B90093F0
:1041500062000093650000E202BB0E9463021A95B0
:1041600019F70E94B6020E941D080AB108610E9458
:10417000C2020E94CD0200C00C949300F3E0E0E084
:10418000D3E0C0E250E0A89500E0152F0E94A840BF
:104190000C51019309935395503109F0A1F70895FB
:1041A0000E948B0B072F003011F401E07DC001301D
:1041B00011F402E079C0023011F404E075C003305C
:1041C00011F408E071C0043011F400E16DC0053055
:1041D00011F400E269C0063011F400E465C0073054
:1041E00011F400E861C0083011F401E063C0093047
:1041F00011F402E05FC00A3011F404E05BC00B3040
:1042000011F408E057C00C3011F400E153C00D3038
:1042100011F400E24FC00E3011F400E44BC00F3037
:1042200011F400E847C0003111F401E049C0013148
:1042300011F402E045C0023111F404E041C0033141
:1042400011F408E03DC0043111F400E139C005313A
:1042500011F400E235C0063111F400E431C0073139
:1042600011F400E82DC0083111F401E02FC009312C
:1042700011F402E02BC00A3111F404E027C00B3125
:1042800011F408E023C00C3111F400E11FC00D311E
:1042900011F400E21BC00E3111F400E417C00F311D
:1042A00011F400E813C018C01091CA04012B009348
:1042B000CA0412C01091CB04012B0093CB040CC094
:1042C0001091CC04012B0093CC0406C01091CD04B6
:1042D000012B0093CD0400C00C9493000E948B0B23
:1042E000072F003011F401E07DC0013011F402E02D
:1042F00079C0023011F404E075C0033011F408E015
:1043000071C0043011F400E16DC0053011F400E219
:1043100069C0063011F400E465C0073011F400E80C
:1043200061C0083011F401E064C0093011F402E00A
:1043300060C00A3011F404E05CC00B3011F408E0F6
:1043400058C00C3011F400E154C00D3011F400E2FB
:1043500050C00E3011F400E44CC00F3011F400E8EE
:1043600048C0003111F401E04BC0013111F402E00A
:1043700047C0023111F404E043C0033111F408E0F6
:104380003FC0043111F400E13BC0053111F400E2FB
:1043900037C0063111F400E433C0073111F400E8EE
:1043A0002FC0083111F401E032C0093111F402E0EC
:1043B0002EC00A3111F404E02AC00B3111F408E0D8
:1043C00026C00C3111F400E122C00D3111F400E2DD
:1043D0001EC00E3111F400E41AC00F3111F400E8D0
:1043E00016C01CC01091CA04009501230093CA0492
:1043F00015C01091CB04009501230093CB040EC08F
:104400001091CC04009501230093CC0407C01091B7
:10441000CD04009501230093CD0400C00C949300BB
:104420000E94D607402F0E94D607502FD3E0C0E04D
:10443000F3E0E0E2A4D14F935F930E94D6070030EF
:1044400091F0DF93CF93FF93EF93042F0E94CD451C
:104450000C2FEF91FF91CF91DF910A3020F00F3BAD
:1044600010F408830083219631965F914F91439514
:104470005A9509F70C9493001296B0930F05A093E8
:104480001005B0930D05A0930E0512970E943D09EB
:1044900000EC00930A050E94500900910A0507FFED
:1044A00004C000919B0007FFF8CFF1E1EAEC09940A
:1044B00000910D0510910E0500930F051093100546
:1044C00000910A05006800930A050E945009F0E077
:1044D000E3E909940E94580900910A050F770093B7
:1044E0000A05F0E0E3E9099400910A0500620093EF
:1044F0000A05F0E0E3E909940E94580900910D05CE
:1045000010910E0500930F051093100500910A05F8
:10451000006C00930A050E945009F0E0E3E9099459
:104520000E948B0B072F00930505F0E0E3E9099447
:10453000102F0E94D607003021F009931A95C9F771
:1045400002C02196FBCF0895302F1D91299112179B
:1045500018F4211B022F02C0121B012F0395019397
:104560003A9599F70895202F01911191011708F4B8
:10457000012F2A95D1F703950093DB0408957F93CB
:10458000702F0F931F932F933F934F935F936F93CE
:104590000091DA04002371F401E110E02091D404C9
:1045A00030E00E94EE02203009F421E029937A9550
:1045B00099F716C001E110E02091D40430E00E9488
:1045C000EE02019110E00E94EE024091DB0450E007
:1045D0000E94FD02203009F421E029937A9551F7D9
:1045E0006F915F914F913F912F911F910F917F910B
:1045F00008950E94D607002319F00456099301C0BC
:1046000021962A95B1F7089519910E94150801176E
:1046100021F0012F11970E9419082A95A9F70895F2
:10462000FEE0E0E0D4E0C3EE14E028E00991079555
:1046300010F030E001C03FEF31932A95C1F71A9591
:10464000A1F7142F252FFEE0E0E0E10F08F4F39529
:1046500001910F3F21F42A95D9F708940895889481
:104660000895FEE0E0E0D4E0C3EE14E028E0099114
:10467000079510F030E001C03FEF31932A95C1F764
:104680001A95A1F7142F252FFEE0E0E00E94D42315
:1046900000E001932A95E1F7FEE0E0E0D4E0C3EE0C
:1046A00024E040E038E00191002311F4889401C037
:1046B000089447953A95B9F749932A9591F7089543
:1046C000FEE0E0E0D4E0C7EE14E028E009910795B1
:1046D00010F030E001C03FEF31932A95C1F71A95F1
:1046E000A1F7142F252FFEE0E0E00E94D423679568
:1046F00010F40FEF01C000E001932A95C1F7FEE02E
:10470000E0E0D4E0C7EE24E040E038E0019100238F
:1047100011F4889401C0089447953A95B9F74993E4
:104720002A9591F7BF93AF93D4E0C7EEBFE0A0EB1B
:1047300024E00E9415081991011721F0012FA150C2
:104740000E9419082A95A9F7AF91BF9108954F9338
:104750000F93442329F00D91099101914A95D9F7BE
:104760000F914F9108954F930F93442329F00D918A
:10477000099101914A95D9F70F914F9108954F935F
:104780000F93442321F0099101914A95E1F70F918C
:104790004F9108954F930F93442319F009914A952F
:1047A000E9F70F914F9108954F930F93442319F018
:1047B00001914A95E9F70F914F9108954F930F9307
:1047C000442319F00D914A95E9F70F914F910895FF
:1047D0000E94D607402F0E94D607502FD5E0C4E391
:1047E000D9DF4F935F930E94D60709935F914F9152
:1047F00043955A95B1F710E2D5E0C4E32227209300
:104800002F0508811F93102F1A5018F410E0005044
:1048100006C01A5018F410E10A5001C010E00993C4
:10482000013009F42160023009F42260033009F4F8
:104830002460043009F42860212B20932F051F9158
:104840001A95F9F60C9493000E94D607402F0E9407
:10485000D607502FD5E0C4E59DDF4F935F930E94AC
:10486000D60709935F914F9143955A95B1F70C94F0
:1048700093000E94D607402F0E94D607502FD5E004
:10488000C4E988DF4F935F930E94D60709935F9135
:104890004F9143955A95B1F70C94930004560E949A
:1048A000640E15E015BD10E014BD16B7107416BFE8
:1048B00012E01EBDF894003079F0013071F0023042
:1048C00069F0033061F0043059F0053051F00630E2
:1048D00049F0073041F062C107C02EC055C07CC00E
:1048E000A3C0CAC0F1C018C1009B0BC0789416E9E0
:1048F00014BD16B7107416BFA89516B716FFFCCFD7
:10490000F89410E514BD16B7107416BFA895009959
:1049100004C016B716FFFACF41C11BEE14BD16B77F
:10492000107416BF11271DBD1CBDA895009B22C188
:1049300016B716FFFACF32C1019B0BC0789416E967
:1049400014BD16B7107416BFA89516B716FFFCCF86
:10495000F89410E514BD16B7107416BFA895019908
:1049600004C016B716FFFACF19C11BEE14BD16B757
:10497000107416BF11271DBD1CBDA895019BFAC060
:1049800016B716FFFACF0AC1029B0BC0789416E93E
:1049900014BD16B7107416BFA89516B716FFFCCF36
:1049A000F89410E514BD16B7107416BFA8950299B7
:1049B00004C016B716FFFACFF1C01BEE14BD16B730
:1049C000107416BF11271DBD1CBDA895029BD2C037
:1049D00016B716FFFACFE2C0039B0BC0789416E916
:1049E00014BD16B7107416BFA89516B716FFFCCFE6
:1049F000F89410E514BD16B7107416BFA895039966
:104A000004C016B716FFFACFC9C01BEE14BD16B707
:104A1000107416BF11271DBD1CBDA895039BAAC00D
:104A200016B716FFFACFBAC0049B0BC0789416E9EC
:104A300014BD16B7107416BFA89516B716FFFCCF95
:104A4000F89410E514BD16B7107416BFA895049914
:104A500004C016B716FFFACFA1C01BEE14BD16B7DF
:104A6000107416BF11271DBD1CBDA895049B82C0E4
:104A700016B716FFFACF92C0059B0BC0789416E9C3
:104A800014BD16B7107416BFA89516B716FFFCCF45
:104A9000F89410E514BD16B7107416BFA8950599C3
:104AA00004C016B716FFFACF79C01BEE14BD16B7B7
:104AB000107416BF11271DBD1CBDA895059B5AC0BB
:104AC00016B716FFFACF6AC0069B0BC0789416E99A
:104AD00014BD16B7107416BFA89516B716FFFCCFF5
:104AE000F89410E514BD16B7107416BFA895069972
:104AF00004C016B716FFFACF51C01BEE14BD16B78F
:104B0000107416BF11271DBD1CBDA895069B32C091
:104B100016B716FFFACF42C0079B0BC0789416E970
:104B200014BD16B7107416BFA89516B716FFFCCFA4
:104B3000F89410E514BD16B7107416BFA895079920
:104B400004C016B716FFFACF29C01BEE14BD16B766
:104B5000107416BF11271DBD1CBDA895079B0AC068
:104B600016B716FFFACF1AC02CB53DB516B716FF0B
:104B7000DCCE14C02CB53DB53795279537952795D4
:104B80003F73303009F420E0323008F024EB243B4E
:104B900008F024EB33271AE0210F02C02227332725
:104BA00078940E94CD1411960C949300FE7F543F8C
:104BB0001F140900A8951F932F931A9A129AF8941C
:104BC000009508942AE01FE71A95000000000000F5
:104BD000D9F708F01A9A08F41A9806952A9599F7C1
:104BE0001A9A78942F911F910895FBE4ECEAE00F54
:104BF00008F4F39504910093C40408950F93009171
:104C0000D20401FD07C009C00F930091D20401FD39
:104C100007C009C00F910C9416260F910C94FE3119
:104C20000F910C94AB290F910C9453371030F9F17C
:104C30001130F1F11230E9F11330E1F11430D9F112
:104C40001530D1F11630C9F11730C1F11830B9F172
:104C50001930B1F11A30A9F11B30A1F11C3099F1D2
:104C60001D3091F11E3089F11F3081F1103179F141
:104C7000113171F1123169F1133161F1143159F1CE
:104C8000153151F1163149F1173141F1183139F12E
:104C9000193131F11A3129F11B3121F11C3119F18E
:104CA0001D3111F11E3109F11F3101F1089520C0AC
:104CB00037C04EC065C07CC093C0AAC0C1C0D8C0B8
:104CC000EFC006C11DC134C14BC162C179C190C1E1
:104CD000A7C1BEC1D5C1ECC103C21AC231C248C20C
:104CE0005FC276C28DC2A4C2BBC2E3C20BC3089529
:104CF000A8952F93D89AD09A009508942AE01091FD
:104D0000C4041A95000000000000D9F708F0D89AF2
:104D100008F4D89806952A9591F7D89A2F91089576
:104D2000A8952F93D99AD19A009508942AE01091CA
:104D3000C4041A95000000000000D9F708F0D99AC1
:104D400008F4D99806952A9591F7D99A2F91089544
:104D5000A8952F93DA9AD29A009508942AE0109198
:104D6000C4041A95000000000000D9F708F0DA9A90
:104D700008F4DA9806952A9591F7DA9A2F91089512
:104D8000A8952F93DB9AD39A009508942AE0109166
:104D9000C4041A95000000000000D9F708F0DB9A5F
:104DA00008F4DB9806952A9591F7DB9A2F910895E0
:104DB000A8952F93DC9AD49A009508942AE0109134
:104DC000C4041A95000000000000D9F708F0DC9A2E
:104DD00008F4DC9806952A9591F7DC9A2F910895AE
:104DE000A8952F93DD9AD59A009508942AE0109102
:104DF000C4041A95000000000000D9F708F0DD9AFD
:104E000008F4DD9806952A9591F7DD9A2F9108957B
:104E1000A8952F93DE9AD69A009508942AE01091CF
:104E2000C4041A95000000000000D9F708F0DE9ACB
:104E300008F4DE9806952A9591F7DE9A2F91089549
:104E4000A8952F93DF9AD79A009508942AE010919D
:104E5000C4041A95000000000000D9F708F0DF9A9A
:104E600008F4DF9806952A9591F7DF9A2F91089517
:104E7000A8952F93C09AB89A009508942AE01091AB
:104E8000C4041A95000000000000D9F708F0C09A89
:104E900008F4C09806952A9591F7C09A2F91089525
:104EA000A8952F93C19AB99A009508942AE0109179
:104EB000C4041A95000000000000D9F708F0C19A58
:104EC00008F4C19806952A9591F7C19A2F910895F3
:104ED000A8952F93C29ABA9A009508942AE0109147
:104EE000C4041A95000000000000D9F708F0C29A27
:104EF00008F4C29806952A9591F7C29A2F910895C1
:104F0000A8952F93C39ABB9A009508942AE0109114
:104F1000C4041A95000000000000D9F708F0C39AF5
:104F200008F4C39806952A9591F7C39A2F9108958E
:104F3000A8952F93C49ABC9A009508942AE01091E2
:104F4000C4041A95000000000000D9F708F0C49AC4
:104F500008F4C49806952A9591F7C49A2F9108955C
:104F6000A8952F93C59ABD9A009508942AE01091B0
:104F7000C4041A95000000000000D9F708F0C59A93
:104F800008F4C59806952A9591F7C59A2F9108952A
:104F9000A8952F93C69ABE9A009508942AE010917E
:104FA000C4041A95000000000000D9F708F0C69A62
:104FB00008F4C69806952A9591F7C69A2F910895F8
:104FC000A8952F93C79ABF9A009508942AE010914C
:104FD000C4041A95000000000000D9F708F0C79A31
:104FE00008F4C79806952A9591F7C79A2F910895C6
:104FF000A8952F93AF9AA79A009508942AE010914C
:10500000C4041A95000000000000D9F708F0AF9A18
:1050100008F4AF9806952A9591F7AF9A2F910895C5
:10502000A8952F93AE9AA69A009508942AE010911D
:10503000C4041A95000000000000D9F708F0AE9AE9
:1050400008F4AE9806952A9591F7AE9A2F91089597
:10505000A8952F93AD9AA59A009508942AE01091EF
:10506000C4041A95000000000000D9F708F0AD9ABA
:1050700008F4AD9806952A9591F7AD9A2F91089569
:10508000A8952F93AC9AA49A009508942AE01091C1
:10509000C4041A95000000000000D9F708F0AC9A8B
:1050A00008F4AC9806952A9591F7AC9A2F9108953B
:1050B000A8952F93AB9AA39A009508942AE0109193
:1050C000C4041A95000000000000D9F708F0AB9A5C
:1050D00008F4AB9806952A9591F7AB9A2F9108950D
:1050E000A8952F93AA9AA29A009508942AE0109165
:1050F000C4041A95000000000000D9F708F0AA9A2D
:1051000008F4AA9806952A9591F7AA9A2F910895DE
:10511000A8952F93A99AA19A009508942AE0109136
:10512000C4041A95000000000000D9F708F0A99AFD
:1051300008F4A99806952A9591F7A99A2F910895B0
:10514000A8952F93A89AA09A009508942AE0109108
:10515000C4041A95000000000000D9F708F0A89ACE
:1051600008F4A89806952A9591F7A89A2F91089582
:10517000A8952F931F9A179A009508942AE01091EA
:10518000C4041A95000000000000D9F708F01F9A27
:1051900008F41F9806952A9591F71F9A2F91089564
:1051A000A8952F931E9A169A009508942AE01091BC
:1051B000C4041A95000000000000D9F708F01E9AF8
:1051C00008F41E9806952A9591F71E9A2F91089536
:1051D000A8952F93979A8F9A009508942AE010919A
:1051E000C4041A95000000000000D9F708F0979A4F
:1051F00008F4979806952A9591F7979A2F91089514
:10520000A8952F93969A8E9A009508942AE010916B
:10521000C4041A95000000000000D9F708F0969A1F
:1052200008F4969806952A9591F7969A2F910895E5
:10523000A8952F93959A8D9A009508942AE010913D
:10524000C4041A95000000000000D9F708F0959AF0
:1052500008F4959806952A9591F7959A2F910895B7
:10526000A8952F933F934F9330916500346030930E
:10527000650040916400446040936400432F4B7F7D
:10528000009508942AE01091C4041A9500000000CB
:105290000000D9F710F03093650010F440936500DA
:1052A00006952A9581F7309365004F913F912F9194
:1052B0000895A8952F933F934F93309165003260E6
:1052C0003093650040916400426040936400432F36
:1052D0004D7F009508942AE01091C4041A950000AF
:1052E00000000000D9F710F03093650010F44093EF
:1052F000650006952A9581F7309365004F913F919F
:105300002F910895A8952F933F934F933091650067
:1053100031603093650040916400416040936400C7
:10532000432F4E7F009508942AE01091C4041A95EB
:10533000000000000000D9F710F03093650010F471
:105340004093650006952A9581F7309365004F914B
:105350003F912F910895A8951030F9F11130F1F196
:105360001230E9F11330E1F11430D9F11530D1F1F7
:105370001630C9F11730C1F11830B9F11930B1F157
:105380001A30A9F11B30A1F11C3099F11D3091F1B7
:105390001E3089F11F3081F1103179F1113171F135
:1053A000123169F1133161F1143159F1153151F1B3
:1053B000163149F1173141F1183139F1193131F113
:1053C0001A3129F11B3121F11C3119F11D3111F173
:1053D0001E3109F11F3101F1089520C05CC098C051
:1053E000D4C010C14CC188C1C4C100C23CC278C283
:1053F000B4C2F0C22CC368C3A4C3E0C31CC458C465
:1054000094C4D0C40CC548C584C5C0C5FCC538C645
:1054100074C6B0C6ECC636C780C7089500002F9387
:10542000D098C89BC5C70000DFD7A895C89B04C00B
:1054300006B702FFFACFC0C700001091C40416954A
:105440001A95000000000000D9F7C899B9C70000FC
:105450001091C4041A951A95000000000000D9F7B5
:105460000000002728E0000000000894C89901C04F
:105470008894079500001091C4041A951A950000AD
:1054800000000000D9F7000000002A9561F7C89BD2
:105490009BC70000A3C700002F93D198C99B88C762
:1054A0000000A2D7A895C99B04C006B702FFFACF97
:1054B00083C700001091C40416951A9500000000DF
:1054C0000000D9F7C9997CC700001091C4041A954F
:1054D0001A95000000000000D9F70000002728E01E
:1054E000000000000894C99901C088940795000045
:1054F0001091C4041A951A95000000000000D9F715
:10550000000000002A9561F7C99B5EC7000066C7CE
:1055100000002F93D298CA9B4BC7000065D7A8956F
:10552000CA9B04C006B702FFFACF46C7000010911D
:10553000C40416951A95000000000000D9F7CA9916
:105540003FC700001091C4041A951A95000000008E
:105550000000D9F70000002728E0000000000894B0
:10556000CA9901C08894079500001091C4041A9547
:105570001A95000000000000D9F7000000002A95ED
:1055800061F7CA9B21C7000029C700002F93D39859
:10559000CB9B0EC7000028D7A895CB9B04C006B7AD
:1055A00002FFFACF09C700001091C40416951A959E
:1055B000000000000000D9F7CB9902C7000010914D
:1055C000C4041A951A95000000000000D9F70000E5
:1055D000002728E0000000000894CB9901C08894BF
:1055E000079500001091C4041A951A950000000058
:1055F0000000D9F7000000002A9561F7CB9BE4C6B4
:105600000000ECC600002F93D498CC9BD1C60000BC
:10561000EBD6A895CC9B04C006B702FFFACFCCC648
:1056200000001091C40416951A95000000000000B7
:10563000D9F7CC99C5C600001091C4041A951A95E3
:10564000000000000000D9F70000002728E000005B
:1056500000000894CC9901C088940795000010912F
:10566000C4041A951A95000000000000D9F7000044
:1056700000002A9561F7CC9BA7C60000AFC60000CA
:105680002F93D598CD9B94C60000AED6A895CD9B00
:1056900004C006B702FFFACF8FC600001091C40401
:1056A00016951A95000000000000D9F7CD9988C61C
:1056B00000001091C4041A951A9500000000000023
:1056C000D9F70000002728E0000000000894CD99D9
:1056D00001C08894079500001091C4041A951A958A
:1056E000000000000000D9F7000000002A9561F7D3
:1056F000CD9B6AC6000072C600002F93D698CE9B41
:1057000057C6000071D6A895CE9B04C006B702FF0D
:10571000FACF52C600001091C40416951A950000E5
:1057200000000000D9F7CE994BC600001091C404C8
:105730001A951A95000000000000D9F70000002714
:1057400028E0000000000894CE9901C088940795D5
:1057500000001091C4041A951A9500000000000082
:10576000D9F7000000002A9561F7CE9B2DC60000F6
:1057700035C600002F93D798CF9B1AC6000034D6A9
:10578000A895CF9B04C006B702FFFACF15C600004C
:105790001091C40416951A95000000000000D9F776
:1057A000CF990EC600001091C4041A951A950000F6
:1057B00000000000D9F70000002728E000000000EA
:1057C0000894CF9901C08894079500001091C404F3
:1057D0001A951A95000000000000D9F7000000009B
:1057E0002A9561F7CF9BF0C50000F8C500002F9304
:1057F000B898B09BDDC50000F7D5A895B09B04C054
:1058000006B702FFFACFD8C500001091C404169560
:105810001A95000000000000D9F7B099D1C500002A
:105820001091C4041A951A95000000000000D9F7E1
:105830000000002728E0000000000894B09901C093
:105840008894079500001091C4041A951A950000D9
:1058500000000000D9F7000000002A9561F7B09B16
:10586000B3C50000BBC500002F93B998B19BA0C57C
:105870000000BAD5A895B19B04C006B702FFFACFC5
:105880009BC500001091C40416951A9500000000F5
:105890000000D9F7B19994C500001091C4041A957D
:1058A0001A95000000000000D9F70000002728E04A
:1058B000000000000894B19901C088940795000089
:1058C0001091C4041A951A95000000000000D9F741
:1058D000000000002A9561F7B19B76C500007EC5E7
:1058E00000002F93BA98B29B63C500007DD5A895A0
:1058F000B29B04C006B702FFFACF5EC5000010914C
:10590000C40416951A95000000000000D9F7B2995A
:1059100057C500001091C4041A951A9500000000A4
:105920000000D9F70000002728E0000000000894DC
:10593000B29901C08894079500001091C4041A958B
:105940001A95000000000000D9F7000000002A9519
:1059500061F7B29B39C5000041C500002F93BB9889
:10596000B39B26C5000040D5A895B39B04C006B7DD
:1059700002FFFACF21C500001091C40416951A95B4
:10598000000000000000D9F7B3991AC5000010917B
:10599000C4041A951A95000000000000D9F7000011
:1059A000002728E0000000000894B39901C0889403
:1059B000079500001091C4041A951A950000000084
:1059C0000000D9F7000000002A9561F7B39BFCC4E2
:1059D000000004C500002F93BC98B49BE9C40000EC
:1059E00003D5A895B49B04C006B702FFFACFE4C460
:1059F00000001091C40416951A95000000000000E4
:105A0000D9F7B499DDC400001091C4041A951A9511
:105A1000000000000000D9F70000002728E0000087
:105A200000000894B49901C0889407950000109173
:105A3000C4041A951A95000000000000D9F7000070
:105A400000002A9561F7B49BBFC40000C7C40000E2
:105A50002F93BD98B59BACC40000C6D4A895B59B48
:105A600004C006B702FFFACFA7C400001091C40417
:105A700016951A95000000000000D9F7B599A0C44A
:105A800000001091C4041A951A950000000000004F
:105A9000D9F70000002728E0000000000894B5991D
:105AA00001C08894079500001091C4041A951A95B6
:105AB000000000000000D9F7000000002A9561F7FF
:105AC000B59B82C400008AC400002F93BE98B69B89
:105AD0006FC4000089D4A895B69B04C006B702FF26
